{
  "_format": "hh-sol-artifact-1",
  "contractName": "Assessment",
  "sourceName": "contracts/Assessment.sol",
  "abi": [
    {
      "inputs": [
        {
          "internalType": "string",
          "name": "initBalance",
          "type": "string"
        }
      ],
      "stateMutability": "payable",
      "type": "constructor"
    },
    {
      "inputs": [
        {
          "internalType": "string",
          "name": "_name",
          "type": "string"
        },
        {
          "internalType": "uint256",
          "name": "id",
          "type": "uint256"
        }
      ],
      "name": "addItem",
      "outputs": [],
      "stateMutability": "payable",
      "type": "function"
    },
    {
      "inputs": [],
      "name": "balance",
      "outputs": [
        {
          "internalType": "string",
          "name": "",
          "type": "string"
        }
      ],
      "stateMutability": "view",
      "type": "function"
    },
    {
      "inputs": [],
      "name": "getItemNames",
      "outputs": [
        {
          "internalType": "string[]",
          "name": "",
          "type": "string[]"
        }
      ],
      "stateMutability": "view",
      "type": "function"
    },
    {
      "inputs": [],
      "name": "getString",
      "outputs": [
        {
          "internalType": "string",
          "name": "",
          "type": "string"
        }
      ],
      "stateMutability": "view",
      "type": "function"
    },
    {
      "inputs": [
        {
          "internalType": "uint256",
          "name": "",
          "type": "uint256"
        }
      ],
      "name": "itemIds",
      "outputs": [
        {
          "internalType": "uint256",
          "name": "",
          "type": "uint256"
        }
      ],
      "stateMutability": "view",
      "type": "function"
    },
    {
      "inputs": [
        {
          "internalType": "uint256",
          "name": "",
          "type": "uint256"
        }
      ],
      "name": "items",
      "outputs": [
        {
          "internalType": "string",
          "name": "",
          "type": "string"
        }
      ],
      "stateMutability": "view",
      "type": "function"
    },
    {
      "inputs": [
        {
          "internalType": "uint256",
          "name": "id",
          "type": "uint256"
        }
      ],
      "name": "removeItem",
      "outputs": [],
      "stateMutability": "nonpayable",
      "type": "function"
    }
  ],
  "bytecode": "0x60806040526040516200175c3803806200175c8339818101604052810190620000299190620001d5565b80600090816200003a919062000471565b505062000558565b6000604051905090565b600080fd5b600080fd5b600080fd5b600080fd5b6000601f19601f8301169050919050565b7f4e487b7100000000000000000000000000000000000000000000000000000000600052604160045260246000fd5b620000ab8262000060565b810181811067ffffffffffffffff82111715620000cd57620000cc62000071565b5b80604052505050565b6000620000e262000042565b9050620000f08282620000a0565b919050565b600067ffffffffffffffff82111562000113576200011262000071565b5b6200011e8262000060565b9050602081019050919050565b60005b838110156200014b5780820151818401526020810190506200012e565b60008484015250505050565b60006200016e6200016884620000f5565b620000d6565b9050828152602081018484840111156200018d576200018c6200005b565b5b6200019a8482856200012b565b509392505050565b600082601f830112620001ba57620001b962000056565b5b8151620001cc84826020860162000157565b91505092915050565b600060208284031215620001ee57620001ed6200004c565b5b600082015167ffffffffffffffff8111156200020f576200020e62000051565b5b6200021d84828501620001a2565b91505092915050565b600081519050919050565b7f4e487b7100000000000000000000000000000000000000000000000000000000600052602260045260246000fd5b600060028204905060018216806200027957607f821691505b6020821081036200028f576200028e62000231565b5b50919050565b60008190508160005260206000209050919050565b60006020601f8301049050919050565b600082821b905092915050565b600060088302620002f97fffffffffffffffffffffffffffffffffffffffffffffffffffffffffffffffff82620002ba565b620003058683620002ba565b95508019841693508086168417925050509392505050565b6000819050919050565b6000819050919050565b6000620003526200034c62000346846200031d565b62000327565b6200031d565b9050919050565b6000819050919050565b6200036e8362000331565b620003866200037d8262000359565b848454620002c7565b825550505050565b600090565b6200039d6200038e565b620003aa81848462000363565b505050565b5b81811015620003d257620003c660008262000393565b600181019050620003b0565b5050565b601f8211156200042157620003eb8162000295565b620003f684620002aa565b8101602085101562000406578190505b6200041e6200041585620002aa565b830182620003af565b50505b505050565b600082821c905092915050565b6000620004466000198460080262000426565b1980831691505092915050565b600062000461838362000433565b9150826002028217905092915050565b6200047c8262000226565b67ffffffffffffffff81111562000498576200049762000071565b5b620004a4825462000260565b620004b1828285620003d6565b600060209050601f831160018114620004e95760008415620004d4578287015190505b620004e0858262000453565b86555062000550565b601f198416620004f98662000295565b60005b828110156200052357848901518255600182019150602085019450602081019050620004fc565b868310156200054357848901516200053f601f89168262000433565b8355505b6001600288020188555050505b505050505050565b6111f480620005686000396000f3fe6080604052600436106100705760003560e01c806389ea642f1161004e57806389ea642f146100e5578063b3dc00fe14610110578063b69ef8a81461014d578063bfb231d21461017857610070565b806313bc85101461007557806362d6bbdf146100a057806371329171146100bc575b600080fd5b34801561008157600080fd5b5061008a6101b5565b60405161009791906108dc565b60405180910390f35b6100ba60048036038101906100b59190610a7d565b610311565b005b3480156100c857600080fd5b506100e360048036038101906100de9190610ad9565b61038e565b005b3480156100f157600080fd5b506100fa610549565b6040516101079190610b50565b60405180910390f35b34801561011c57600080fd5b5061013760048036038101906101329190610ad9565b6105db565b6040516101449190610b81565b60405180910390f35b34801561015957600080fd5b506101626105ff565b60405161016f9190610b50565b60405180910390f35b34801561018457600080fd5b5061019f600480360381019061019a9190610ad9565b61068d565b6040516101ac9190610b50565b60405180910390f35b6060600060028054905067ffffffffffffffff8111156101d8576101d761091c565b5b60405190808252806020026020018201604052801561020b57816020015b60608152602001906001900390816101f65790505b50905060005b60028054905081101561030957600160006002838154811061023657610235610b9c565b5b90600052602060002001548152602001908152602001600020805461025a90610bfa565b80601f016020809104026020016040519081016040528092919081815260200182805461028690610bfa565b80156102d35780601f106102a8576101008083540402835291602001916102d3565b820191906000526020600020905b8154815290600101906020018083116102b657829003601f168201915b50505050508282815181106102eb576102ea610b9c565b5b6020026020010181905250808061030190610c5a565b915050610211565b508091505090565b816001600083815260200190815260200160002090816103319190610e4e565b5060028190806001815401808255809150506001900390600052602060002001600090919091909150558160405160200161036c9190610fa8565b604051602081830303815290604052600090816103899190610e4e565b505050565b60006001600083815260200190815260200160002080546103ae90610bfa565b9050116103f0576040517f08c379a00000000000000000000000000000000000000000000000000000000081526004016103e790611016565b60405180910390fd5b600160008281526020019081526020016000206040516020016104139190611105565b604051602081830303815290604052600090816104309190610e4e565b50600160008281526020019081526020016000206000610450919061072d565b60005b60028054905081101561054557816002828154811061047557610474610b9c565b5b9060005260206000200154036105325760008190505b600160028054905061049d9190611127565b8110156105045760026001826104b3919061115b565b815481106104c4576104c3610b9c565b5b9060005260206000200154600282815481106104e3576104e2610b9c565b5b906000526020600020018190555080806104fc90610c5a565b91505061048b565b5060028054806105175761051661118f565b5b60019003818190600052602060002001600090559055610545565b808061053d90610c5a565b915050610453565b5050565b60606000805461055890610bfa565b80601f016020809104026020016040519081016040528092919081815260200182805461058490610bfa565b80156105d15780601f106105a6576101008083540402835291602001916105d1565b820191906000526020600020905b8154815290600101906020018083116105b457829003601f168201915b5050505050905090565b600281815481106105eb57600080fd5b906000526020600020016000915090505481565b6000805461060c90610bfa565b80601f016020809104026020016040519081016040528092919081815260200182805461063890610bfa565b80156106855780601f1061065a57610100808354040283529160200191610685565b820191906000526020600020905b81548152906001019060200180831161066857829003601f168201915b505050505081565b600160205280600052604060002060009150905080546106ac90610bfa565b80601f01602080910402602001604051908101604052809291908181526020018280546106d890610bfa565b80156107255780601f106106fa57610100808354040283529160200191610725565b820191906000526020600020905b81548152906001019060200180831161070857829003601f168201915b505050505081565b50805461073990610bfa565b6000825580601f1061074b575061076a565b601f016020900490600052602060002090810190610769919061076d565b5b50565b5b8082111561078657600081600090555060010161076e565b5090565b600081519050919050565b600082825260208201905092915050565b6000819050602082019050919050565b600081519050919050565b600082825260208201905092915050565b60005b838110156107f05780820151818401526020810190506107d5565b60008484015250505050565b6000601f19601f8301169050919050565b6000610818826107b6565b61082281856107c1565b93506108328185602086016107d2565b61083b816107fc565b840191505092915050565b6000610852838361080d565b905092915050565b6000602082019050919050565b60006108728261078a565b61087c8185610795565b93508360208202850161088e856107a6565b8060005b858110156108ca57848403895281516108ab8582610846565b94506108b68361085a565b925060208a01995050600181019050610892565b50829750879550505050505092915050565b600060208201905081810360008301526108f68184610867565b905092915050565b6000604051905090565b600080fd5b600080fd5b600080fd5b600080fd5b7f4e487b7100000000000000000000000000000000000000000000000000000000600052604160045260246000fd5b610954826107fc565b810181811067ffffffffffffffff821117156109735761097261091c565b5b80604052505050565b60006109866108fe565b9050610992828261094b565b919050565b600067ffffffffffffffff8211156109b2576109b161091c565b5b6109bb826107fc565b9050602081019050919050565b82818337600083830152505050565b60006109ea6109e584610997565b61097c565b905082815260208101848484011115610a0657610a05610917565b5b610a118482856109c8565b509392505050565b600082601f830112610a2e57610a2d610912565b5b8135610a3e8482602086016109d7565b91505092915050565b6000819050919050565b610a5a81610a47565b8114610a6557600080fd5b50565b600081359050610a7781610a51565b92915050565b60008060408385031215610a9457610a93610908565b5b600083013567ffffffffffffffff811115610ab257610ab161090d565b5b610abe85828601610a19565b9250506020610acf85828601610a68565b9150509250929050565b600060208284031215610aef57610aee610908565b5b6000610afd84828501610a68565b91505092915050565b600082825260208201905092915050565b6000610b22826107b6565b610b2c8185610b06565b9350610b3c8185602086016107d2565b610b45816107fc565b840191505092915050565b60006020820190508181036000830152610b6a8184610b17565b905092915050565b610b7b81610a47565b82525050565b6000602082019050610b966000830184610b72565b92915050565b7f4e487b7100000000000000000000000000000000000000000000000000000000600052603260045260246000fd5b7f4e487b7100000000000000000000000000000000000000000000000000000000600052602260045260246000fd5b60006002820490506001821680610c1257607f821691505b602082108103610c2557610c24610bcb565b5b50919050565b7f4e487b7100000000000000000000000000000000000000000000000000000000600052601160045260246000fd5b6000610c6582610a47565b91507fffffffffffffffffffffffffffffffffffffffffffffffffffffffffffffffff8203610c9757610c96610c2b565b5b600182019050919050565b60008190508160005260206000209050919050565b60006020601f8301049050919050565b600082821b905092915050565b600060088302610d047fffffffffffffffffffffffffffffffffffffffffffffffffffffffffffffffff82610cc7565b610d0e8683610cc7565b95508019841693508086168417925050509392505050565b6000819050919050565b6000610d4b610d46610d4184610a47565b610d26565b610a47565b9050919050565b6000819050919050565b610d6583610d30565b610d79610d7182610d52565b848454610cd4565b825550505050565b600090565b610d8e610d81565b610d99818484610d5c565b505050565b5b81811015610dbd57610db2600082610d86565b600181019050610d9f565b5050565b601f821115610e0257610dd381610ca2565b610ddc84610cb7565b81016020851015610deb578190505b610dff610df785610cb7565b830182610d9e565b50505b505050565b600082821c905092915050565b6000610e2560001984600802610e07565b1980831691505092915050565b6000610e3e8383610e14565b9150826002028217905092915050565b610e57826107b6565b67ffffffffffffffff811115610e7057610e6f61091c565b5b610e7a8254610bfa565b610e85828285610dc1565b600060209050601f831160018114610eb85760008415610ea6578287015190505b610eb08582610e32565b865550610f18565b601f198416610ec686610ca2565b60005b82811015610eee57848901518255600182019150602085019450602081019050610ec9565b86831015610f0b5784890151610f07601f891682610e14565b8355505b6001600288020188555050505b505050505050565b600081905092915050565b7f41646465642073747564656e7420000000000000000000000000000000000000600082015250565b6000610f61600e83610f20565b9150610f6c82610f2b565b600e82019050919050565b6000610f82826107b6565b610f8c8185610f20565b9350610f9c8185602086016107d2565b80840191505092915050565b6000610fb382610f54565b9150610fbf8284610f77565b915081905092915050565b7f53747564656e7420646f6573206e6f7420657869737400000000000000000000600082015250565b6000611000601683610b06565b915061100b82610fca565b602082019050919050565b6000602082019050818103600083015261102f81610ff3565b9050919050565b7f52656d6f7665642073747564656e742000000000000000000000000000000000600082015250565b600061106c601083610f20565b915061107782611036565b601082019050919050565b6000815461108f81610bfa565b6110998186610f20565b945060018216600081146110b457600181146110c9576110fc565b60ff19831686528115158202860193506110fc565b6110d285610ca2565b60005b838110156110f4578154818901526001820191506020810190506110d5565b838801955050505b50505092915050565b60006111108261105f565b915061111c8284611082565b915081905092915050565b600061113282610a47565b915061113d83610a47565b925082820390508181111561115557611154610c2b565b5b92915050565b600061116682610a47565b915061117183610a47565b925082820190508082111561118957611188610c2b565b5b92915050565b7f4e487b7100000000000000000000000000000000000000000000000000000000600052603160045260246000fdfea2646970667358221220a2776018e7a998ca9f27992ff54f2f1ff509425ed19b0336f7bfeab32ee8d16564736f6c63430008110033",
  "linkReferences": {},
  "deployedLinkReferences": {}
}