{"contracts/Assessment.sol":{"Assessment":{"abi":[{"inputs":[{"internalType":"string","name":"initBalance","type":"string"}],"stateMutability":"payable","type":"constructor"},{"inputs":[{"internalType":"string","name":"_name","type":"string"},{"internalType":"uint256","name":"id","type":"uint256"}],"name":"addItem","outputs":[],"stateMutability":"payable","type":"function"},{"inputs":[],"name":"balance","outputs":[{"internalType":"string","name":"","type":"string"}],"stateMutability":"view","type":"function"},{"inputs":[],"name":"getItemNames","outputs":[{"internalType":"string[]","name":"","type":"string[]"}],"stateMutability":"view","type":"function"},{"inputs":[],"name":"getString","outputs":[{"internalType":"string","name":"","type":"string"}],"stateMutability":"view","type":"function"},{"inputs":[{"internalType":"uint256","name":"","type":"uint256"}],"name":"itemIds","outputs":[{"internalType":"uint256","name":"","type":"uint256"}],"stateMutability":"view","type":"function"},{"inputs":[{"internalType":"uint256","name":"","type":"uint256"}],"name":"items","outputs":[{"internalType":"string","name":"","type":"string"}],"stateMutability":"view","type":"function"},{"inputs":[{"internalType":"uint256","name":"id","type":"uint256"}],"name":"removeItem","outputs":[],"stateMutability":"nonpayable","type":"function"}],"evm":{"bytecode":{"linkReferences":{},"object":"60806040526040516200175c3803806200175c8339818101604052810190620000299190620001d5565b80600090816200003a919062000471565b505062000558565b6000604051905090565b600080fd5b600080fd5b600080fd5b600080fd5b6000601f19601f8301169050919050565b7f4e487b7100000000000000000000000000000000000000000000000000000000600052604160045260246000fd5b620000ab8262000060565b810181811067ffffffffffffffff82111715620000cd57620000cc62000071565b5b80604052505050565b6000620000e262000042565b9050620000f08282620000a0565b919050565b600067ffffffffffffffff82111562000113576200011262000071565b5b6200011e8262000060565b9050602081019050919050565b60005b838110156200014b5780820151818401526020810190506200012e565b60008484015250505050565b60006200016e6200016884620000f5565b620000d6565b9050828152602081018484840111156200018d576200018c6200005b565b5b6200019a8482856200012b565b509392505050565b600082601f830112620001ba57620001b962000056565b5b8151620001cc84826020860162000157565b91505092915050565b600060208284031215620001ee57620001ed6200004c565b5b600082015167ffffffffffffffff8111156200020f576200020e62000051565b5b6200021d84828501620001a2565b91505092915050565b600081519050919050565b7f4e487b7100000000000000000000000000000000000000000000000000000000600052602260045260246000fd5b600060028204905060018216806200027957607f821691505b6020821081036200028f576200028e62000231565b5b50919050565b60008190508160005260206000209050919050565b60006020601f8301049050919050565b600082821b905092915050565b600060088302620002f97fffffffffffffffffffffffffffffffffffffffffffffffffffffffffffffffff82620002ba565b620003058683620002ba565b95508019841693508086168417925050509392505050565b6000819050919050565b6000819050919050565b6000620003526200034c62000346846200031d565b62000327565b6200031d565b9050919050565b6000819050919050565b6200036e8362000331565b620003866200037d8262000359565b848454620002c7565b825550505050565b600090565b6200039d6200038e565b620003aa81848462000363565b505050565b5b81811015620003d257620003c660008262000393565b600181019050620003b0565b5050565b601f8211156200042157620003eb8162000295565b620003f684620002aa565b8101602085101562000406578190505b6200041e6200041585620002aa565b830182620003af565b50505b505050565b600082821c905092915050565b6000620004466000198460080262000426565b1980831691505092915050565b600062000461838362000433565b9150826002028217905092915050565b6200047c8262000226565b67ffffffffffffffff81111562000498576200049762000071565b5b620004a4825462000260565b620004b1828285620003d6565b600060209050601f831160018114620004e95760008415620004d4578287015190505b620004e0858262000453565b86555062000550565b601f198416620004f98662000295565b60005b828110156200052357848901518255600182019150602085019450602081019050620004fc565b868310156200054357848901516200053f601f89168262000433565b8355505b6001600288020188555050505b505050505050565b6111f480620005686000396000f3fe6080604052600436106100705760003560e01c806389ea642f1161004e57806389ea642f146100e5578063b3dc00fe14610110578063b69ef8a81461014d578063bfb231d21461017857610070565b806313bc85101461007557806362d6bbdf146100a057806371329171146100bc575b600080fd5b34801561008157600080fd5b5061008a6101b5565b60405161009791906108dc565b60405180910390f35b6100ba60048036038101906100b59190610a7d565b610311565b005b3480156100c857600080fd5b506100e360048036038101906100de9190610ad9565b61038e565b005b3480156100f157600080fd5b506100fa610549565b6040516101079190610b50565b60405180910390f35b34801561011c57600080fd5b5061013760048036038101906101329190610ad9565b6105db565b6040516101449190610b81565b60405180910390f35b34801561015957600080fd5b506101626105ff565b60405161016f9190610b50565b60405180910390f35b34801561018457600080fd5b5061019f600480360381019061019a9190610ad9565b61068d565b6040516101ac9190610b50565b60405180910390f35b6060600060028054905067ffffffffffffffff8111156101d8576101d761091c565b5b60405190808252806020026020018201604052801561020b57816020015b60608152602001906001900390816101f65790505b50905060005b60028054905081101561030957600160006002838154811061023657610235610b9c565b5b90600052602060002001548152602001908152602001600020805461025a90610bfa565b80601f016020809104026020016040519081016040528092919081815260200182805461028690610bfa565b80156102d35780601f106102a8576101008083540402835291602001916102d3565b820191906000526020600020905b8154815290600101906020018083116102b657829003601f168201915b50505050508282815181106102eb576102ea610b9c565b5b6020026020010181905250808061030190610c5a565b915050610211565b508091505090565b816001600083815260200190815260200160002090816103319190610e4e565b5060028190806001815401808255809150506001900390600052602060002001600090919091909150558160405160200161036c9190610fa8565b604051602081830303815290604052600090816103899190610e4e565b505050565b60006001600083815260200190815260200160002080546103ae90610bfa565b9050116103f0576040517f08c379a00000000000000000000000000000000000000000000000000000000081526004016103e790611016565b60405180910390fd5b600160008281526020019081526020016000206040516020016104139190611105565b604051602081830303815290604052600090816104309190610e4e565b50600160008281526020019081526020016000206000610450919061072d565b60005b60028054905081101561054557816002828154811061047557610474610b9c565b5b9060005260206000200154036105325760008190505b600160028054905061049d9190611127565b8110156105045760026001826104b3919061115b565b815481106104c4576104c3610b9c565b5b9060005260206000200154600282815481106104e3576104e2610b9c565b5b906000526020600020018190555080806104fc90610c5a565b91505061048b565b5060028054806105175761051661118f565b5b60019003818190600052602060002001600090559055610545565b808061053d90610c5a565b915050610453565b5050565b60606000805461055890610bfa565b80601f016020809104026020016040519081016040528092919081815260200182805461058490610bfa565b80156105d15780601f106105a6576101008083540402835291602001916105d1565b820191906000526020600020905b8154815290600101906020018083116105b457829003601f168201915b5050505050905090565b600281815481106105eb57600080fd5b906000526020600020016000915090505481565b6000805461060c90610bfa565b80601f016020809104026020016040519081016040528092919081815260200182805461063890610bfa565b80156106855780601f1061065a57610100808354040283529160200191610685565b820191906000526020600020905b81548152906001019060200180831161066857829003601f168201915b505050505081565b600160205280600052604060002060009150905080546106ac90610bfa565b80601f01602080910402602001604051908101604052809291908181526020018280546106d890610bfa565b80156107255780601f106106fa57610100808354040283529160200191610725565b820191906000526020600020905b81548152906001019060200180831161070857829003601f168201915b505050505081565b50805461073990610bfa565b6000825580601f1061074b575061076a565b601f016020900490600052602060002090810190610769919061076d565b5b50565b5b8082111561078657600081600090555060010161076e565b5090565b600081519050919050565b600082825260208201905092915050565b6000819050602082019050919050565b600081519050919050565b600082825260208201905092915050565b60005b838110156107f05780820151818401526020810190506107d5565b60008484015250505050565b6000601f19601f8301169050919050565b6000610818826107b6565b61082281856107c1565b93506108328185602086016107d2565b61083b816107fc565b840191505092915050565b6000610852838361080d565b905092915050565b6000602082019050919050565b60006108728261078a565b61087c8185610795565b93508360208202850161088e856107a6565b8060005b858110156108ca57848403895281516108ab8582610846565b94506108b68361085a565b925060208a01995050600181019050610892565b50829750879550505050505092915050565b600060208201905081810360008301526108f68184610867565b905092915050565b6000604051905090565b600080fd5b600080fd5b600080fd5b600080fd5b7f4e487b7100000000000000000000000000000000000000000000000000000000600052604160045260246000fd5b610954826107fc565b810181811067ffffffffffffffff821117156109735761097261091c565b5b80604052505050565b60006109866108fe565b9050610992828261094b565b919050565b600067ffffffffffffffff8211156109b2576109b161091c565b5b6109bb826107fc565b9050602081019050919050565b82818337600083830152505050565b60006109ea6109e584610997565b61097c565b905082815260208101848484011115610a0657610a05610917565b5b610a118482856109c8565b509392505050565b600082601f830112610a2e57610a2d610912565b5b8135610a3e8482602086016109d7565b91505092915050565b6000819050919050565b610a5a81610a47565b8114610a6557600080fd5b50565b600081359050610a7781610a51565b92915050565b60008060408385031215610a9457610a93610908565b5b600083013567ffffffffffffffff811115610ab257610ab161090d565b5b610abe85828601610a19565b9250506020610acf85828601610a68565b9150509250929050565b600060208284031215610aef57610aee610908565b5b6000610afd84828501610a68565b91505092915050565b600082825260208201905092915050565b6000610b22826107b6565b610b2c8185610b06565b9350610b3c8185602086016107d2565b610b45816107fc565b840191505092915050565b60006020820190508181036000830152610b6a8184610b17565b905092915050565b610b7b81610a47565b82525050565b6000602082019050610b966000830184610b72565b92915050565b7f4e487b7100000000000000000000000000000000000000000000000000000000600052603260045260246000fd5b7f4e487b7100000000000000000000000000000000000000000000000000000000600052602260045260246000fd5b60006002820490506001821680610c1257607f821691505b602082108103610c2557610c24610bcb565b5b50919050565b7f4e487b7100000000000000000000000000000000000000000000000000000000600052601160045260246000fd5b6000610c6582610a47565b91507fffffffffffffffffffffffffffffffffffffffffffffffffffffffffffffffff8203610c9757610c96610c2b565b5b600182019050919050565b60008190508160005260206000209050919050565b60006020601f8301049050919050565b600082821b905092915050565b600060088302610d047fffffffffffffffffffffffffffffffffffffffffffffffffffffffffffffffff82610cc7565b610d0e8683610cc7565b95508019841693508086168417925050509392505050565b6000819050919050565b6000610d4b610d46610d4184610a47565b610d26565b610a47565b9050919050565b6000819050919050565b610d6583610d30565b610d79610d7182610d52565b848454610cd4565b825550505050565b600090565b610d8e610d81565b610d99818484610d5c565b505050565b5b81811015610dbd57610db2600082610d86565b600181019050610d9f565b5050565b601f821115610e0257610dd381610ca2565b610ddc84610cb7565b81016020851015610deb578190505b610dff610df785610cb7565b830182610d9e565b50505b505050565b600082821c905092915050565b6000610e2560001984600802610e07565b1980831691505092915050565b6000610e3e8383610e14565b9150826002028217905092915050565b610e57826107b6565b67ffffffffffffffff811115610e7057610e6f61091c565b5b610e7a8254610bfa565b610e85828285610dc1565b600060209050601f831160018114610eb85760008415610ea6578287015190505b610eb08582610e32565b865550610f18565b601f198416610ec686610ca2565b60005b82811015610eee57848901518255600182019150602085019450602081019050610ec9565b86831015610f0b5784890151610f07601f891682610e14565b8355505b6001600288020188555050505b505050505050565b600081905092915050565b7f41646465642073747564656e7420000000000000000000000000000000000000600082015250565b6000610f61600e83610f20565b9150610f6c82610f2b565b600e82019050919050565b6000610f82826107b6565b610f8c8185610f20565b9350610f9c8185602086016107d2565b80840191505092915050565b6000610fb382610f54565b9150610fbf8284610f77565b915081905092915050565b7f53747564656e7420646f6573206e6f7420657869737400000000000000000000600082015250565b6000611000601683610b06565b915061100b82610fca565b602082019050919050565b6000602082019050818103600083015261102f81610ff3565b9050919050565b7f52656d6f7665642073747564656e742000000000000000000000000000000000600082015250565b600061106c601083610f20565b915061107782611036565b601082019050919050565b6000815461108f81610bfa565b6110998186610f20565b945060018216600081146110b457600181146110c9576110fc565b60ff19831686528115158202860193506110fc565b6110d285610ca2565b60005b838110156110f4578154818901526001820191506020810190506110d5565b838801955050505b50505092915050565b60006111108261105f565b915061111c8284611082565b915081905092915050565b600061113282610a47565b915061113d83610a47565b925082820390508181111561115557611154610c2b565b5b92915050565b600061116682610a47565b915061117183610a47565b925082820190508082111561118957611188610c2b565b5b92915050565b7f4e487b7100000000000000000000000000000000000000000000000000000000600052603160045260246000fdfea2646970667358221220a2776018e7a998ca9f27992ff54f2f1ff509425ed19b0336f7bfeab32ee8d16564736f6c63430008110033","opcodes":"PUSH1 0x80 PUSH1 0x40 MSTORE PUSH1 0x40 MLOAD PUSH3 0x175C CODESIZE SUB DUP1 PUSH3 0x175C DUP4 CODECOPY DUP2 DUP2 ADD PUSH1 0x40 MSTORE DUP2 ADD SWAP1 PUSH3 0x29 SWAP2 SWAP1 PUSH3 0x1D5 JUMP JUMPDEST DUP1 PUSH1 0x0 SWAP1 DUP2 PUSH3 0x3A SWAP2 SWAP1 PUSH3 0x471 JUMP JUMPDEST POP POP PUSH3 0x558 JUMP JUMPDEST PUSH1 0x0 PUSH1 0x40 MLOAD SWAP1 POP SWAP1 JUMP JUMPDEST PUSH1 0x0 DUP1 REVERT JUMPDEST PUSH1 0x0 DUP1 REVERT JUMPDEST PUSH1 0x0 DUP1 REVERT JUMPDEST PUSH1 0x0 DUP1 REVERT JUMPDEST PUSH1 0x0 PUSH1 0x1F NOT PUSH1 0x1F DUP4 ADD AND SWAP1 POP SWAP2 SWAP1 POP JUMP JUMPDEST PUSH32 0x4E487B7100000000000000000000000000000000000000000000000000000000 PUSH1 0x0 MSTORE PUSH1 0x41 PUSH1 0x4 MSTORE PUSH1 0x24 PUSH1 0x0 REVERT JUMPDEST PUSH3 0xAB DUP3 PUSH3 0x60 JUMP JUMPDEST DUP2 ADD DUP2 DUP2 LT PUSH8 0xFFFFFFFFFFFFFFFF DUP3 GT OR ISZERO PUSH3 0xCD JUMPI PUSH3 0xCC PUSH3 0x71 JUMP JUMPDEST JUMPDEST DUP1 PUSH1 0x40 MSTORE POP POP POP JUMP JUMPDEST PUSH1 0x0 PUSH3 0xE2 PUSH3 0x42 JUMP JUMPDEST SWAP1 POP PUSH3 0xF0 DUP3 DUP3 PUSH3 0xA0 JUMP JUMPDEST SWAP2 SWAP1 POP JUMP JUMPDEST PUSH1 0x0 PUSH8 0xFFFFFFFFFFFFFFFF DUP3 GT ISZERO PUSH3 0x113 JUMPI PUSH3 0x112 PUSH3 0x71 JUMP JUMPDEST JUMPDEST PUSH3 0x11E DUP3 PUSH3 0x60 JUMP JUMPDEST SWAP1 POP PUSH1 0x20 DUP2 ADD SWAP1 POP SWAP2 SWAP1 POP JUMP JUMPDEST PUSH1 0x0 JUMPDEST DUP4 DUP2 LT ISZERO PUSH3 0x14B JUMPI DUP1 DUP3 ADD MLOAD DUP2 DUP5 ADD MSTORE PUSH1 0x20 DUP2 ADD SWAP1 POP PUSH3 0x12E JUMP JUMPDEST PUSH1 0x0 DUP5 DUP5 ADD MSTORE POP POP POP POP JUMP JUMPDEST PUSH1 0x0 PUSH3 0x16E PUSH3 0x168 DUP5 PUSH3 0xF5 JUMP JUMPDEST PUSH3 0xD6 JUMP JUMPDEST SWAP1 POP DUP3 DUP2 MSTORE PUSH1 0x20 DUP2 ADD DUP5 DUP5 DUP5 ADD GT ISZERO PUSH3 0x18D JUMPI PUSH3 0x18C PUSH3 0x5B JUMP JUMPDEST JUMPDEST PUSH3 0x19A DUP5 DUP3 DUP6 PUSH3 0x12B JUMP JUMPDEST POP SWAP4 SWAP3 POP POP POP JUMP JUMPDEST PUSH1 0x0 DUP3 PUSH1 0x1F DUP4 ADD SLT PUSH3 0x1BA JUMPI PUSH3 0x1B9 PUSH3 0x56 JUMP JUMPDEST JUMPDEST DUP2 MLOAD PUSH3 0x1CC DUP5 DUP3 PUSH1 0x20 DUP7 ADD PUSH3 0x157 JUMP JUMPDEST SWAP2 POP POP SWAP3 SWAP2 POP POP JUMP JUMPDEST PUSH1 0x0 PUSH1 0x20 DUP3 DUP5 SUB SLT ISZERO PUSH3 0x1EE JUMPI PUSH3 0x1ED PUSH3 0x4C JUMP JUMPDEST JUMPDEST PUSH1 0x0 DUP3 ADD MLOAD PUSH8 0xFFFFFFFFFFFFFFFF DUP2 GT ISZERO PUSH3 0x20F JUMPI PUSH3 0x20E PUSH3 0x51 JUMP JUMPDEST JUMPDEST PUSH3 0x21D DUP5 DUP3 DUP6 ADD PUSH3 0x1A2 JUMP JUMPDEST SWAP2 POP POP SWAP3 SWAP2 POP POP JUMP JUMPDEST PUSH1 0x0 DUP2 MLOAD SWAP1 POP SWAP2 SWAP1 POP JUMP JUMPDEST PUSH32 0x4E487B7100000000000000000000000000000000000000000000000000000000 PUSH1 0x0 MSTORE PUSH1 0x22 PUSH1 0x4 MSTORE PUSH1 0x24 PUSH1 0x0 REVERT JUMPDEST PUSH1 0x0 PUSH1 0x2 DUP3 DIV SWAP1 POP PUSH1 0x1 DUP3 AND DUP1 PUSH3 0x279 JUMPI PUSH1 0x7F DUP3 AND SWAP2 POP JUMPDEST PUSH1 0x20 DUP3 LT DUP2 SUB PUSH3 0x28F JUMPI PUSH3 0x28E PUSH3 0x231 JUMP JUMPDEST JUMPDEST POP SWAP2 SWAP1 POP JUMP JUMPDEST PUSH1 0x0 DUP2 SWAP1 POP DUP2 PUSH1 0x0 MSTORE PUSH1 0x20 PUSH1 0x0 KECCAK256 SWAP1 POP SWAP2 SWAP1 POP JUMP JUMPDEST PUSH1 0x0 PUSH1 0x20 PUSH1 0x1F DUP4 ADD DIV SWAP1 POP SWAP2 SWAP1 POP JUMP JUMPDEST PUSH1 0x0 DUP3 DUP3 SHL SWAP1 POP SWAP3 SWAP2 POP POP JUMP JUMPDEST PUSH1 0x0 PUSH1 0x8 DUP4 MUL PUSH3 0x2F9 PUSH32 0xFFFFFFFFFFFFFFFFFFFFFFFFFFFFFFFFFFFFFFFFFFFFFFFFFFFFFFFFFFFFFFFF DUP3 PUSH3 0x2BA JUMP JUMPDEST PUSH3 0x305 DUP7 DUP4 PUSH3 0x2BA JUMP JUMPDEST SWAP6 POP DUP1 NOT DUP5 AND SWAP4 POP DUP1 DUP7 AND DUP5 OR SWAP3 POP POP POP SWAP4 SWAP3 POP POP POP JUMP JUMPDEST PUSH1 0x0 DUP2 SWAP1 POP SWAP2 SWAP1 POP JUMP JUMPDEST PUSH1 0x0 DUP2 SWAP1 POP SWAP2 SWAP1 POP JUMP JUMPDEST PUSH1 0x0 PUSH3 0x352 PUSH3 0x34C PUSH3 0x346 DUP5 PUSH3 0x31D JUMP JUMPDEST PUSH3 0x327 JUMP JUMPDEST PUSH3 0x31D JUMP JUMPDEST SWAP1 POP SWAP2 SWAP1 POP JUMP JUMPDEST PUSH1 0x0 DUP2 SWAP1 POP SWAP2 SWAP1 POP JUMP JUMPDEST PUSH3 0x36E DUP4 PUSH3 0x331 JUMP JUMPDEST PUSH3 0x386 PUSH3 0x37D DUP3 PUSH3 0x359 JUMP JUMPDEST DUP5 DUP5 SLOAD PUSH3 0x2C7 JUMP JUMPDEST DUP3 SSTORE POP POP POP POP JUMP JUMPDEST PUSH1 0x0 SWAP1 JUMP JUMPDEST PUSH3 0x39D PUSH3 0x38E JUMP JUMPDEST PUSH3 0x3AA DUP2 DUP5 DUP5 PUSH3 0x363 JUMP JUMPDEST POP POP POP JUMP JUMPDEST JUMPDEST DUP2 DUP2 LT ISZERO PUSH3 0x3D2 JUMPI PUSH3 0x3C6 PUSH1 0x0 DUP3 PUSH3 0x393 JUMP JUMPDEST PUSH1 0x1 DUP2 ADD SWAP1 POP PUSH3 0x3B0 JUMP JUMPDEST POP POP JUMP JUMPDEST PUSH1 0x1F DUP3 GT ISZERO PUSH3 0x421 JUMPI PUSH3 0x3EB DUP2 PUSH3 0x295 JUMP JUMPDEST PUSH3 0x3F6 DUP5 PUSH3 0x2AA JUMP JUMPDEST DUP2 ADD PUSH1 0x20 DUP6 LT ISZERO PUSH3 0x406 JUMPI DUP2 SWAP1 POP JUMPDEST PUSH3 0x41E PUSH3 0x415 DUP6 PUSH3 0x2AA JUMP JUMPDEST DUP4 ADD DUP3 PUSH3 0x3AF JUMP JUMPDEST POP POP JUMPDEST POP POP POP JUMP JUMPDEST PUSH1 0x0 DUP3 DUP3 SHR SWAP1 POP SWAP3 SWAP2 POP POP JUMP JUMPDEST PUSH1 0x0 PUSH3 0x446 PUSH1 0x0 NOT DUP5 PUSH1 0x8 MUL PUSH3 0x426 JUMP JUMPDEST NOT DUP1 DUP4 AND SWAP2 POP POP SWAP3 SWAP2 POP POP JUMP JUMPDEST PUSH1 0x0 PUSH3 0x461 DUP4 DUP4 PUSH3 0x433 JUMP JUMPDEST SWAP2 POP DUP3 PUSH1 0x2 MUL DUP3 OR SWAP1 POP SWAP3 SWAP2 POP POP JUMP JUMPDEST PUSH3 0x47C DUP3 PUSH3 0x226 JUMP JUMPDEST PUSH8 0xFFFFFFFFFFFFFFFF DUP2 GT ISZERO PUSH3 0x498 JUMPI PUSH3 0x497 PUSH3 0x71 JUMP JUMPDEST JUMPDEST PUSH3 0x4A4 DUP3 SLOAD PUSH3 0x260 JUMP JUMPDEST PUSH3 0x4B1 DUP3 DUP3 DUP6 PUSH3 0x3D6 JUMP JUMPDEST PUSH1 0x0 PUSH1 0x20 SWAP1 POP PUSH1 0x1F DUP4 GT PUSH1 0x1 DUP2 EQ PUSH3 0x4E9 JUMPI PUSH1 0x0 DUP5 ISZERO PUSH3 0x4D4 JUMPI DUP3 DUP8 ADD MLOAD SWAP1 POP JUMPDEST PUSH3 0x4E0 DUP6 DUP3 PUSH3 0x453 JUMP JUMPDEST DUP7 SSTORE POP PUSH3 0x550 JUMP JUMPDEST PUSH1 0x1F NOT DUP5 AND PUSH3 0x4F9 DUP7 PUSH3 0x295 JUMP JUMPDEST PUSH1 0x0 JUMPDEST DUP3 DUP2 LT ISZERO PUSH3 0x523 JUMPI DUP5 DUP10 ADD MLOAD DUP3 SSTORE PUSH1 0x1 DUP3 ADD SWAP2 POP PUSH1 0x20 DUP6 ADD SWAP5 POP PUSH1 0x20 DUP2 ADD SWAP1 POP PUSH3 0x4FC JUMP JUMPDEST DUP7 DUP4 LT ISZERO PUSH3 0x543 JUMPI DUP5 DUP10 ADD MLOAD PUSH3 0x53F PUSH1 0x1F DUP10 AND DUP3 PUSH3 0x433 JUMP JUMPDEST DUP4 SSTORE POP JUMPDEST PUSH1 0x1 PUSH1 0x2 DUP9 MUL ADD DUP9 SSTORE POP POP POP JUMPDEST POP POP POP POP POP POP JUMP JUMPDEST PUSH2 0x11F4 DUP1 PUSH3 0x568 PUSH1 0x0 CODECOPY PUSH1 0x0 RETURN INVALID PUSH1 0x80 PUSH1 0x40 MSTORE PUSH1 0x4 CALLDATASIZE LT PUSH2 0x70 JUMPI PUSH1 0x0 CALLDATALOAD PUSH1 0xE0 SHR DUP1 PUSH4 0x89EA642F GT PUSH2 0x4E JUMPI DUP1 PUSH4 0x89EA642F EQ PUSH2 0xE5 JUMPI DUP1 PUSH4 0xB3DC00FE EQ PUSH2 0x110 JUMPI DUP1 PUSH4 0xB69EF8A8 EQ PUSH2 0x14D JUMPI DUP1 PUSH4 0xBFB231D2 EQ PUSH2 0x178 JUMPI PUSH2 0x70 JUMP JUMPDEST DUP1 PUSH4 0x13BC8510 EQ PUSH2 0x75 JUMPI DUP1 PUSH4 0x62D6BBDF EQ PUSH2 0xA0 JUMPI DUP1 PUSH4 0x71329171 EQ PUSH2 0xBC JUMPI JUMPDEST PUSH1 0x0 DUP1 REVERT JUMPDEST CALLVALUE DUP1 ISZERO PUSH2 0x81 JUMPI PUSH1 0x0 DUP1 REVERT JUMPDEST POP PUSH2 0x8A PUSH2 0x1B5 JUMP JUMPDEST PUSH1 0x40 MLOAD PUSH2 0x97 SWAP2 SWAP1 PUSH2 0x8DC JUMP JUMPDEST PUSH1 0x40 MLOAD DUP1 SWAP2 SUB SWAP1 RETURN JUMPDEST PUSH2 0xBA PUSH1 0x4 DUP1 CALLDATASIZE SUB DUP2 ADD SWAP1 PUSH2 0xB5 SWAP2 SWAP1 PUSH2 0xA7D JUMP JUMPDEST PUSH2 0x311 JUMP JUMPDEST STOP JUMPDEST CALLVALUE DUP1 ISZERO PUSH2 0xC8 JUMPI PUSH1 0x0 DUP1 REVERT JUMPDEST POP PUSH2 0xE3 PUSH1 0x4 DUP1 CALLDATASIZE SUB DUP2 ADD SWAP1 PUSH2 0xDE SWAP2 SWAP1 PUSH2 0xAD9 JUMP JUMPDEST PUSH2 0x38E JUMP JUMPDEST STOP JUMPDEST CALLVALUE DUP1 ISZERO PUSH2 0xF1 JUMPI PUSH1 0x0 DUP1 REVERT JUMPDEST POP PUSH2 0xFA PUSH2 0x549 JUMP JUMPDEST PUSH1 0x40 MLOAD PUSH2 0x107 SWAP2 SWAP1 PUSH2 0xB50 JUMP JUMPDEST PUSH1 0x40 MLOAD DUP1 SWAP2 SUB SWAP1 RETURN JUMPDEST CALLVALUE DUP1 ISZERO PUSH2 0x11C JUMPI PUSH1 0x0 DUP1 REVERT JUMPDEST POP PUSH2 0x137 PUSH1 0x4 DUP1 CALLDATASIZE SUB DUP2 ADD SWAP1 PUSH2 0x132 SWAP2 SWAP1 PUSH2 0xAD9 JUMP JUMPDEST PUSH2 0x5DB JUMP JUMPDEST PUSH1 0x40 MLOAD PUSH2 0x144 SWAP2 SWAP1 PUSH2 0xB81 JUMP JUMPDEST PUSH1 0x40 MLOAD DUP1 SWAP2 SUB SWAP1 RETURN JUMPDEST CALLVALUE DUP1 ISZERO PUSH2 0x159 JUMPI PUSH1 0x0 DUP1 REVERT JUMPDEST POP PUSH2 0x162 PUSH2 0x5FF JUMP JUMPDEST PUSH1 0x40 MLOAD PUSH2 0x16F SWAP2 SWAP1 PUSH2 0xB50 JUMP JUMPDEST PUSH1 0x40 MLOAD DUP1 SWAP2 SUB SWAP1 RETURN JUMPDEST CALLVALUE DUP1 ISZERO PUSH2 0x184 JUMPI PUSH1 0x0 DUP1 REVERT JUMPDEST POP PUSH2 0x19F PUSH1 0x4 DUP1 CALLDATASIZE SUB DUP2 ADD SWAP1 PUSH2 0x19A SWAP2 SWAP1 PUSH2 0xAD9 JUMP JUMPDEST PUSH2 0x68D JUMP JUMPDEST PUSH1 0x40 MLOAD PUSH2 0x1AC SWAP2 SWAP1 PUSH2 0xB50 JUMP JUMPDEST PUSH1 0x40 MLOAD DUP1 SWAP2 SUB SWAP1 RETURN JUMPDEST PUSH1 0x60 PUSH1 0x0 PUSH1 0x2 DUP1 SLOAD SWAP1 POP PUSH8 0xFFFFFFFFFFFFFFFF DUP2 GT ISZERO PUSH2 0x1D8 JUMPI PUSH2 0x1D7 PUSH2 0x91C JUMP JUMPDEST JUMPDEST PUSH1 0x40 MLOAD SWAP1 DUP1 DUP3 MSTORE DUP1 PUSH1 0x20 MUL PUSH1 0x20 ADD DUP3 ADD PUSH1 0x40 MSTORE DUP1 ISZERO PUSH2 0x20B JUMPI DUP2 PUSH1 0x20 ADD JUMPDEST PUSH1 0x60 DUP2 MSTORE PUSH1 0x20 ADD SWAP1 PUSH1 0x1 SWAP1 SUB SWAP1 DUP2 PUSH2 0x1F6 JUMPI SWAP1 POP JUMPDEST POP SWAP1 POP PUSH1 0x0 JUMPDEST PUSH1 0x2 DUP1 SLOAD SWAP1 POP DUP2 LT ISZERO PUSH2 0x309 JUMPI PUSH1 0x1 PUSH1 0x0 PUSH1 0x2 DUP4 DUP2 SLOAD DUP2 LT PUSH2 0x236 JUMPI PUSH2 0x235 PUSH2 0xB9C JUMP JUMPDEST JUMPDEST SWAP1 PUSH1 0x0 MSTORE PUSH1 0x20 PUSH1 0x0 KECCAK256 ADD SLOAD DUP2 MSTORE PUSH1 0x20 ADD SWAP1 DUP2 MSTORE PUSH1 0x20 ADD PUSH1 0x0 KECCAK256 DUP1 SLOAD PUSH2 0x25A SWAP1 PUSH2 0xBFA JUMP JUMPDEST DUP1 PUSH1 0x1F ADD PUSH1 0x20 DUP1 SWAP2 DIV MUL PUSH1 0x20 ADD PUSH1 0x40 MLOAD SWAP1 DUP2 ADD PUSH1 0x40 MSTORE DUP1 SWAP3 SWAP2 SWAP1 DUP2 DUP2 MSTORE PUSH1 0x20 ADD DUP3 DUP1 SLOAD PUSH2 0x286 SWAP1 PUSH2 0xBFA JUMP JUMPDEST DUP1 ISZERO PUSH2 0x2D3 JUMPI DUP1 PUSH1 0x1F LT PUSH2 0x2A8 JUMPI PUSH2 0x100 DUP1 DUP4 SLOAD DIV MUL DUP4 MSTORE SWAP2 PUSH1 0x20 ADD SWAP2 PUSH2 0x2D3 JUMP JUMPDEST DUP3 ADD SWAP2 SWAP1 PUSH1 0x0 MSTORE PUSH1 0x20 PUSH1 0x0 KECCAK256 SWAP1 JUMPDEST DUP2 SLOAD DUP2 MSTORE SWAP1 PUSH1 0x1 ADD SWAP1 PUSH1 0x20 ADD DUP1 DUP4 GT PUSH2 0x2B6 JUMPI DUP3 SWAP1 SUB PUSH1 0x1F AND DUP3 ADD SWAP2 JUMPDEST POP POP POP POP POP DUP3 DUP3 DUP2 MLOAD DUP2 LT PUSH2 0x2EB JUMPI PUSH2 0x2EA PUSH2 0xB9C JUMP JUMPDEST JUMPDEST PUSH1 0x20 MUL PUSH1 0x20 ADD ADD DUP2 SWAP1 MSTORE POP DUP1 DUP1 PUSH2 0x301 SWAP1 PUSH2 0xC5A JUMP JUMPDEST SWAP2 POP POP PUSH2 0x211 JUMP JUMPDEST POP DUP1 SWAP2 POP POP SWAP1 JUMP JUMPDEST DUP2 PUSH1 0x1 PUSH1 0x0 DUP4 DUP2 MSTORE PUSH1 0x20 ADD SWAP1 DUP2 MSTORE PUSH1 0x20 ADD PUSH1 0x0 KECCAK256 SWAP1 DUP2 PUSH2 0x331 SWAP2 SWAP1 PUSH2 0xE4E JUMP JUMPDEST POP PUSH1 0x2 DUP2 SWAP1 DUP1 PUSH1 0x1 DUP2 SLOAD ADD DUP1 DUP3 SSTORE DUP1 SWAP2 POP POP PUSH1 0x1 SWAP1 SUB SWAP1 PUSH1 0x0 MSTORE PUSH1 0x20 PUSH1 0x0 KECCAK256 ADD PUSH1 0x0 SWAP1 SWAP2 SWAP1 SWAP2 SWAP1 SWAP2 POP SSTORE DUP2 PUSH1 0x40 MLOAD PUSH1 0x20 ADD PUSH2 0x36C SWAP2 SWAP1 PUSH2 0xFA8 JUMP JUMPDEST PUSH1 0x40 MLOAD PUSH1 0x20 DUP2 DUP4 SUB SUB DUP2 MSTORE SWAP1 PUSH1 0x40 MSTORE PUSH1 0x0 SWAP1 DUP2 PUSH2 0x389 SWAP2 SWAP1 PUSH2 0xE4E JUMP JUMPDEST POP POP POP JUMP JUMPDEST PUSH1 0x0 PUSH1 0x1 PUSH1 0x0 DUP4 DUP2 MSTORE PUSH1 0x20 ADD SWAP1 DUP2 MSTORE PUSH1 0x20 ADD PUSH1 0x0 KECCAK256 DUP1 SLOAD PUSH2 0x3AE SWAP1 PUSH2 0xBFA JUMP JUMPDEST SWAP1 POP GT PUSH2 0x3F0 JUMPI PUSH1 0x40 MLOAD PUSH32 0x8C379A000000000000000000000000000000000000000000000000000000000 DUP2 MSTORE PUSH1 0x4 ADD PUSH2 0x3E7 SWAP1 PUSH2 0x1016 JUMP JUMPDEST PUSH1 0x40 MLOAD DUP1 SWAP2 SUB SWAP1 REVERT JUMPDEST PUSH1 0x1 PUSH1 0x0 DUP3 DUP2 MSTORE PUSH1 0x20 ADD SWAP1 DUP2 MSTORE PUSH1 0x20 ADD PUSH1 0x0 KECCAK256 PUSH1 0x40 MLOAD PUSH1 0x20 ADD PUSH2 0x413 SWAP2 SWAP1 PUSH2 0x1105 JUMP JUMPDEST PUSH1 0x40 MLOAD PUSH1 0x20 DUP2 DUP4 SUB SUB DUP2 MSTORE SWAP1 PUSH1 0x40 MSTORE PUSH1 0x0 SWAP1 DUP2 PUSH2 0x430 SWAP2 SWAP1 PUSH2 0xE4E JUMP JUMPDEST POP PUSH1 0x1 PUSH1 0x0 DUP3 DUP2 MSTORE PUSH1 0x20 ADD SWAP1 DUP2 MSTORE PUSH1 0x20 ADD PUSH1 0x0 KECCAK256 PUSH1 0x0 PUSH2 0x450 SWAP2 SWAP1 PUSH2 0x72D JUMP JUMPDEST PUSH1 0x0 JUMPDEST PUSH1 0x2 DUP1 SLOAD SWAP1 POP DUP2 LT ISZERO PUSH2 0x545 JUMPI DUP2 PUSH1 0x2 DUP3 DUP2 SLOAD DUP2 LT PUSH2 0x475 JUMPI PUSH2 0x474 PUSH2 0xB9C JUMP JUMPDEST JUMPDEST SWAP1 PUSH1 0x0 MSTORE PUSH1 0x20 PUSH1 0x0 KECCAK256 ADD SLOAD SUB PUSH2 0x532 JUMPI PUSH1 0x0 DUP2 SWAP1 POP JUMPDEST PUSH1 0x1 PUSH1 0x2 DUP1 SLOAD SWAP1 POP PUSH2 0x49D SWAP2 SWAP1 PUSH2 0x1127 JUMP JUMPDEST DUP2 LT ISZERO PUSH2 0x504 JUMPI PUSH1 0x2 PUSH1 0x1 DUP3 PUSH2 0x4B3 SWAP2 SWAP1 PUSH2 0x115B JUMP JUMPDEST DUP2 SLOAD DUP2 LT PUSH2 0x4C4 JUMPI PUSH2 0x4C3 PUSH2 0xB9C JUMP JUMPDEST JUMPDEST SWAP1 PUSH1 0x0 MSTORE PUSH1 0x20 PUSH1 0x0 KECCAK256 ADD SLOAD PUSH1 0x2 DUP3 DUP2 SLOAD DUP2 LT PUSH2 0x4E3 JUMPI PUSH2 0x4E2 PUSH2 0xB9C JUMP JUMPDEST JUMPDEST SWAP1 PUSH1 0x0 MSTORE PUSH1 0x20 PUSH1 0x0 KECCAK256 ADD DUP2 SWAP1 SSTORE POP DUP1 DUP1 PUSH2 0x4FC SWAP1 PUSH2 0xC5A JUMP JUMPDEST SWAP2 POP POP PUSH2 0x48B JUMP JUMPDEST POP PUSH1 0x2 DUP1 SLOAD DUP1 PUSH2 0x517 JUMPI PUSH2 0x516 PUSH2 0x118F JUMP JUMPDEST JUMPDEST PUSH1 0x1 SWAP1 SUB DUP2 DUP2 SWAP1 PUSH1 0x0 MSTORE PUSH1 0x20 PUSH1 0x0 KECCAK256 ADD PUSH1 0x0 SWAP1 SSTORE SWAP1 SSTORE PUSH2 0x545 JUMP JUMPDEST DUP1 DUP1 PUSH2 0x53D SWAP1 PUSH2 0xC5A JUMP JUMPDEST SWAP2 POP POP PUSH2 0x453 JUMP JUMPDEST POP POP JUMP JUMPDEST PUSH1 0x60 PUSH1 0x0 DUP1 SLOAD PUSH2 0x558 SWAP1 PUSH2 0xBFA JUMP JUMPDEST DUP1 PUSH1 0x1F ADD PUSH1 0x20 DUP1 SWAP2 DIV MUL PUSH1 0x20 ADD PUSH1 0x40 MLOAD SWAP1 DUP2 ADD PUSH1 0x40 MSTORE DUP1 SWAP3 SWAP2 SWAP1 DUP2 DUP2 MSTORE PUSH1 0x20 ADD DUP3 DUP1 SLOAD PUSH2 0x584 SWAP1 PUSH2 0xBFA JUMP JUMPDEST DUP1 ISZERO PUSH2 0x5D1 JUMPI DUP1 PUSH1 0x1F LT PUSH2 0x5A6 JUMPI PUSH2 0x100 DUP1 DUP4 SLOAD DIV MUL DUP4 MSTORE SWAP2 PUSH1 0x20 ADD SWAP2 PUSH2 0x5D1 JUMP JUMPDEST DUP3 ADD SWAP2 SWAP1 PUSH1 0x0 MSTORE PUSH1 0x20 PUSH1 0x0 KECCAK256 SWAP1 JUMPDEST DUP2 SLOAD DUP2 MSTORE SWAP1 PUSH1 0x1 ADD SWAP1 PUSH1 0x20 ADD DUP1 DUP4 GT PUSH2 0x5B4 JUMPI DUP3 SWAP1 SUB PUSH1 0x1F AND DUP3 ADD SWAP2 JUMPDEST POP POP POP POP POP SWAP1 POP SWAP1 JUMP JUMPDEST PUSH1 0x2 DUP2 DUP2 SLOAD DUP2 LT PUSH2 0x5EB JUMPI PUSH1 0x0 DUP1 REVERT JUMPDEST SWAP1 PUSH1 0x0 MSTORE PUSH1 0x20 PUSH1 0x0 KECCAK256 ADD PUSH1 0x0 SWAP2 POP SWAP1 POP SLOAD DUP2 JUMP JUMPDEST PUSH1 0x0 DUP1 SLOAD PUSH2 0x60C SWAP1 PUSH2 0xBFA JUMP JUMPDEST DUP1 PUSH1 0x1F ADD PUSH1 0x20 DUP1 SWAP2 DIV MUL PUSH1 0x20 ADD PUSH1 0x40 MLOAD SWAP1 DUP2 ADD PUSH1 0x40 MSTORE DUP1 SWAP3 SWAP2 SWAP1 DUP2 DUP2 MSTORE PUSH1 0x20 ADD DUP3 DUP1 SLOAD PUSH2 0x638 SWAP1 PUSH2 0xBFA JUMP JUMPDEST DUP1 ISZERO PUSH2 0x685 JUMPI DUP1 PUSH1 0x1F LT PUSH2 0x65A JUMPI PUSH2 0x100 DUP1 DUP4 SLOAD DIV MUL DUP4 MSTORE SWAP2 PUSH1 0x20 ADD SWAP2 PUSH2 0x685 JUMP JUMPDEST DUP3 ADD SWAP2 SWAP1 PUSH1 0x0 MSTORE PUSH1 0x20 PUSH1 0x0 KECCAK256 SWAP1 JUMPDEST DUP2 SLOAD DUP2 MSTORE SWAP1 PUSH1 0x1 ADD SWAP1 PUSH1 0x20 ADD DUP1 DUP4 GT PUSH2 0x668 JUMPI DUP3 SWAP1 SUB PUSH1 0x1F AND DUP3 ADD SWAP2 JUMPDEST POP POP POP POP POP DUP2 JUMP JUMPDEST PUSH1 0x1 PUSH1 0x20 MSTORE DUP1 PUSH1 0x0 MSTORE PUSH1 0x40 PUSH1 0x0 KECCAK256 PUSH1 0x0 SWAP2 POP SWAP1 POP DUP1 SLOAD PUSH2 0x6AC SWAP1 PUSH2 0xBFA JUMP JUMPDEST DUP1 PUSH1 0x1F ADD PUSH1 0x20 DUP1 SWAP2 DIV MUL PUSH1 0x20 ADD PUSH1 0x40 MLOAD SWAP1 DUP2 ADD PUSH1 0x40 MSTORE DUP1 SWAP3 SWAP2 SWAP1 DUP2 DUP2 MSTORE PUSH1 0x20 ADD DUP3 DUP1 SLOAD PUSH2 0x6D8 SWAP1 PUSH2 0xBFA JUMP JUMPDEST DUP1 ISZERO PUSH2 0x725 JUMPI DUP1 PUSH1 0x1F LT PUSH2 0x6FA JUMPI PUSH2 0x100 DUP1 DUP4 SLOAD DIV MUL DUP4 MSTORE SWAP2 PUSH1 0x20 ADD SWAP2 PUSH2 0x725 JUMP JUMPDEST DUP3 ADD SWAP2 SWAP1 PUSH1 0x0 MSTORE PUSH1 0x20 PUSH1 0x0 KECCAK256 SWAP1 JUMPDEST DUP2 SLOAD DUP2 MSTORE SWAP1 PUSH1 0x1 ADD SWAP1 PUSH1 0x20 ADD DUP1 DUP4 GT PUSH2 0x708 JUMPI DUP3 SWAP1 SUB PUSH1 0x1F AND DUP3 ADD SWAP2 JUMPDEST POP POP POP POP POP DUP2 JUMP JUMPDEST POP DUP1 SLOAD PUSH2 0x739 SWAP1 PUSH2 0xBFA JUMP JUMPDEST PUSH1 0x0 DUP3 SSTORE DUP1 PUSH1 0x1F LT PUSH2 0x74B JUMPI POP PUSH2 0x76A JUMP JUMPDEST PUSH1 0x1F ADD PUSH1 0x20 SWAP1 DIV SWAP1 PUSH1 0x0 MSTORE PUSH1 0x20 PUSH1 0x0 KECCAK256 SWAP1 DUP2 ADD SWAP1 PUSH2 0x769 SWAP2 SWAP1 PUSH2 0x76D JUMP JUMPDEST JUMPDEST POP JUMP JUMPDEST JUMPDEST DUP1 DUP3 GT ISZERO PUSH2 0x786 JUMPI PUSH1 0x0 DUP2 PUSH1 0x0 SWAP1 SSTORE POP PUSH1 0x1 ADD PUSH2 0x76E JUMP JUMPDEST POP SWAP1 JUMP JUMPDEST PUSH1 0x0 DUP2 MLOAD SWAP1 POP SWAP2 SWAP1 POP JUMP JUMPDEST PUSH1 0x0 DUP3 DUP3 MSTORE PUSH1 0x20 DUP3 ADD SWAP1 POP SWAP3 SWAP2 POP POP JUMP JUMPDEST PUSH1 0x0 DUP2 SWAP1 POP PUSH1 0x20 DUP3 ADD SWAP1 POP SWAP2 SWAP1 POP JUMP JUMPDEST PUSH1 0x0 DUP2 MLOAD SWAP1 POP SWAP2 SWAP1 POP JUMP JUMPDEST PUSH1 0x0 DUP3 DUP3 MSTORE PUSH1 0x20 DUP3 ADD SWAP1 POP SWAP3 SWAP2 POP POP JUMP JUMPDEST PUSH1 0x0 JUMPDEST DUP4 DUP2 LT ISZERO PUSH2 0x7F0 JUMPI DUP1 DUP3 ADD MLOAD DUP2 DUP5 ADD MSTORE PUSH1 0x20 DUP2 ADD SWAP1 POP PUSH2 0x7D5 JUMP JUMPDEST PUSH1 0x0 DUP5 DUP5 ADD MSTORE POP POP POP POP JUMP JUMPDEST PUSH1 0x0 PUSH1 0x1F NOT PUSH1 0x1F DUP4 ADD AND SWAP1 POP SWAP2 SWAP1 POP JUMP JUMPDEST PUSH1 0x0 PUSH2 0x818 DUP3 PUSH2 0x7B6 JUMP JUMPDEST PUSH2 0x822 DUP2 DUP6 PUSH2 0x7C1 JUMP JUMPDEST SWAP4 POP PUSH2 0x832 DUP2 DUP6 PUSH1 0x20 DUP7 ADD PUSH2 0x7D2 JUMP JUMPDEST PUSH2 0x83B DUP2 PUSH2 0x7FC JUMP JUMPDEST DUP5 ADD SWAP2 POP POP SWAP3 SWAP2 POP POP JUMP JUMPDEST PUSH1 0x0 PUSH2 0x852 DUP4 DUP4 PUSH2 0x80D JUMP JUMPDEST SWAP1 POP SWAP3 SWAP2 POP POP JUMP JUMPDEST PUSH1 0x0 PUSH1 0x20 DUP3 ADD SWAP1 POP SWAP2 SWAP1 POP JUMP JUMPDEST PUSH1 0x0 PUSH2 0x872 DUP3 PUSH2 0x78A JUMP JUMPDEST PUSH2 0x87C DUP2 DUP6 PUSH2 0x795 JUMP JUMPDEST SWAP4 POP DUP4 PUSH1 0x20 DUP3 MUL DUP6 ADD PUSH2 0x88E DUP6 PUSH2 0x7A6 JUMP JUMPDEST DUP1 PUSH1 0x0 JUMPDEST DUP6 DUP2 LT ISZERO PUSH2 0x8CA JUMPI DUP5 DUP5 SUB DUP10 MSTORE DUP2 MLOAD PUSH2 0x8AB DUP6 DUP3 PUSH2 0x846 JUMP JUMPDEST SWAP5 POP PUSH2 0x8B6 DUP4 PUSH2 0x85A JUMP JUMPDEST SWAP3 POP PUSH1 0x20 DUP11 ADD SWAP10 POP POP PUSH1 0x1 DUP2 ADD SWAP1 POP PUSH2 0x892 JUMP JUMPDEST POP DUP3 SWAP8 POP DUP8 SWAP6 POP POP POP POP POP POP SWAP3 SWAP2 POP POP JUMP JUMPDEST PUSH1 0x0 PUSH1 0x20 DUP3 ADD SWAP1 POP DUP2 DUP2 SUB PUSH1 0x0 DUP4 ADD MSTORE PUSH2 0x8F6 DUP2 DUP5 PUSH2 0x867 JUMP JUMPDEST SWAP1 POP SWAP3 SWAP2 POP POP JUMP JUMPDEST PUSH1 0x0 PUSH1 0x40 MLOAD SWAP1 POP SWAP1 JUMP JUMPDEST PUSH1 0x0 DUP1 REVERT JUMPDEST PUSH1 0x0 DUP1 REVERT JUMPDEST PUSH1 0x0 DUP1 REVERT JUMPDEST PUSH1 0x0 DUP1 REVERT JUMPDEST PUSH32 0x4E487B7100000000000000000000000000000000000000000000000000000000 PUSH1 0x0 MSTORE PUSH1 0x41 PUSH1 0x4 MSTORE PUSH1 0x24 PUSH1 0x0 REVERT JUMPDEST PUSH2 0x954 DUP3 PUSH2 0x7FC JUMP JUMPDEST DUP2 ADD DUP2 DUP2 LT PUSH8 0xFFFFFFFFFFFFFFFF DUP3 GT OR ISZERO PUSH2 0x973 JUMPI PUSH2 0x972 PUSH2 0x91C JUMP JUMPDEST JUMPDEST DUP1 PUSH1 0x40 MSTORE POP POP POP JUMP JUMPDEST PUSH1 0x0 PUSH2 0x986 PUSH2 0x8FE JUMP JUMPDEST SWAP1 POP PUSH2 0x992 DUP3 DUP3 PUSH2 0x94B JUMP JUMPDEST SWAP2 SWAP1 POP JUMP JUMPDEST PUSH1 0x0 PUSH8 0xFFFFFFFFFFFFFFFF DUP3 GT ISZERO PUSH2 0x9B2 JUMPI PUSH2 0x9B1 PUSH2 0x91C JUMP JUMPDEST JUMPDEST PUSH2 0x9BB DUP3 PUSH2 0x7FC JUMP JUMPDEST SWAP1 POP PUSH1 0x20 DUP2 ADD SWAP1 POP SWAP2 SWAP1 POP JUMP JUMPDEST DUP3 DUP2 DUP4 CALLDATACOPY PUSH1 0x0 DUP4 DUP4 ADD MSTORE POP POP POP JUMP JUMPDEST PUSH1 0x0 PUSH2 0x9EA PUSH2 0x9E5 DUP5 PUSH2 0x997 JUMP JUMPDEST PUSH2 0x97C JUMP JUMPDEST SWAP1 POP DUP3 DUP2 MSTORE PUSH1 0x20 DUP2 ADD DUP5 DUP5 DUP5 ADD GT ISZERO PUSH2 0xA06 JUMPI PUSH2 0xA05 PUSH2 0x917 JUMP JUMPDEST JUMPDEST PUSH2 0xA11 DUP5 DUP3 DUP6 PUSH2 0x9C8 JUMP JUMPDEST POP SWAP4 SWAP3 POP POP POP JUMP JUMPDEST PUSH1 0x0 DUP3 PUSH1 0x1F DUP4 ADD SLT PUSH2 0xA2E JUMPI PUSH2 0xA2D PUSH2 0x912 JUMP JUMPDEST JUMPDEST DUP2 CALLDATALOAD PUSH2 0xA3E DUP5 DUP3 PUSH1 0x20 DUP7 ADD PUSH2 0x9D7 JUMP JUMPDEST SWAP2 POP POP SWAP3 SWAP2 POP POP JUMP JUMPDEST PUSH1 0x0 DUP2 SWAP1 POP SWAP2 SWAP1 POP JUMP JUMPDEST PUSH2 0xA5A DUP2 PUSH2 0xA47 JUMP JUMPDEST DUP2 EQ PUSH2 0xA65 JUMPI PUSH1 0x0 DUP1 REVERT JUMPDEST POP JUMP JUMPDEST PUSH1 0x0 DUP2 CALLDATALOAD SWAP1 POP PUSH2 0xA77 DUP2 PUSH2 0xA51 JUMP JUMPDEST SWAP3 SWAP2 POP POP JUMP JUMPDEST PUSH1 0x0 DUP1 PUSH1 0x40 DUP4 DUP6 SUB SLT ISZERO PUSH2 0xA94 JUMPI PUSH2 0xA93 PUSH2 0x908 JUMP JUMPDEST JUMPDEST PUSH1 0x0 DUP4 ADD CALLDATALOAD PUSH8 0xFFFFFFFFFFFFFFFF DUP2 GT ISZERO PUSH2 0xAB2 JUMPI PUSH2 0xAB1 PUSH2 0x90D JUMP JUMPDEST JUMPDEST PUSH2 0xABE DUP6 DUP3 DUP7 ADD PUSH2 0xA19 JUMP JUMPDEST SWAP3 POP POP PUSH1 0x20 PUSH2 0xACF DUP6 DUP3 DUP7 ADD PUSH2 0xA68 JUMP JUMPDEST SWAP2 POP POP SWAP3 POP SWAP3 SWAP1 POP JUMP JUMPDEST PUSH1 0x0 PUSH1 0x20 DUP3 DUP5 SUB SLT ISZERO PUSH2 0xAEF JUMPI PUSH2 0xAEE PUSH2 0x908 JUMP JUMPDEST JUMPDEST PUSH1 0x0 PUSH2 0xAFD DUP5 DUP3 DUP6 ADD PUSH2 0xA68 JUMP JUMPDEST SWAP2 POP POP SWAP3 SWAP2 POP POP JUMP JUMPDEST PUSH1 0x0 DUP3 DUP3 MSTORE PUSH1 0x20 DUP3 ADD SWAP1 POP SWAP3 SWAP2 POP POP JUMP JUMPDEST PUSH1 0x0 PUSH2 0xB22 DUP3 PUSH2 0x7B6 JUMP JUMPDEST PUSH2 0xB2C DUP2 DUP6 PUSH2 0xB06 JUMP JUMPDEST SWAP4 POP PUSH2 0xB3C DUP2 DUP6 PUSH1 0x20 DUP7 ADD PUSH2 0x7D2 JUMP JUMPDEST PUSH2 0xB45 DUP2 PUSH2 0x7FC JUMP JUMPDEST DUP5 ADD SWAP2 POP POP SWAP3 SWAP2 POP POP JUMP JUMPDEST PUSH1 0x0 PUSH1 0x20 DUP3 ADD SWAP1 POP DUP2 DUP2 SUB PUSH1 0x0 DUP4 ADD MSTORE PUSH2 0xB6A DUP2 DUP5 PUSH2 0xB17 JUMP JUMPDEST SWAP1 POP SWAP3 SWAP2 POP POP JUMP JUMPDEST PUSH2 0xB7B DUP2 PUSH2 0xA47 JUMP JUMPDEST DUP3 MSTORE POP POP JUMP JUMPDEST PUSH1 0x0 PUSH1 0x20 DUP3 ADD SWAP1 POP PUSH2 0xB96 PUSH1 0x0 DUP4 ADD DUP5 PUSH2 0xB72 JUMP JUMPDEST SWAP3 SWAP2 POP POP JUMP JUMPDEST PUSH32 0x4E487B7100000000000000000000000000000000000000000000000000000000 PUSH1 0x0 MSTORE PUSH1 0x32 PUSH1 0x4 MSTORE PUSH1 0x24 PUSH1 0x0 REVERT JUMPDEST PUSH32 0x4E487B7100000000000000000000000000000000000000000000000000000000 PUSH1 0x0 MSTORE PUSH1 0x22 PUSH1 0x4 MSTORE PUSH1 0x24 PUSH1 0x0 REVERT JUMPDEST PUSH1 0x0 PUSH1 0x2 DUP3 DIV SWAP1 POP PUSH1 0x1 DUP3 AND DUP1 PUSH2 0xC12 JUMPI PUSH1 0x7F DUP3 AND SWAP2 POP JUMPDEST PUSH1 0x20 DUP3 LT DUP2 SUB PUSH2 0xC25 JUMPI PUSH2 0xC24 PUSH2 0xBCB JUMP JUMPDEST JUMPDEST POP SWAP2 SWAP1 POP JUMP JUMPDEST PUSH32 0x4E487B7100000000000000000000000000000000000000000000000000000000 PUSH1 0x0 MSTORE PUSH1 0x11 PUSH1 0x4 MSTORE PUSH1 0x24 PUSH1 0x0 REVERT JUMPDEST PUSH1 0x0 PUSH2 0xC65 DUP3 PUSH2 0xA47 JUMP JUMPDEST SWAP2 POP PUSH32 0xFFFFFFFFFFFFFFFFFFFFFFFFFFFFFFFFFFFFFFFFFFFFFFFFFFFFFFFFFFFFFFFF DUP3 SUB PUSH2 0xC97 JUMPI PUSH2 0xC96 PUSH2 0xC2B JUMP JUMPDEST JUMPDEST PUSH1 0x1 DUP3 ADD SWAP1 POP SWAP2 SWAP1 POP JUMP JUMPDEST PUSH1 0x0 DUP2 SWAP1 POP DUP2 PUSH1 0x0 MSTORE PUSH1 0x20 PUSH1 0x0 KECCAK256 SWAP1 POP SWAP2 SWAP1 POP JUMP JUMPDEST PUSH1 0x0 PUSH1 0x20 PUSH1 0x1F DUP4 ADD DIV SWAP1 POP SWAP2 SWAP1 POP JUMP JUMPDEST PUSH1 0x0 DUP3 DUP3 SHL SWAP1 POP SWAP3 SWAP2 POP POP JUMP JUMPDEST PUSH1 0x0 PUSH1 0x8 DUP4 MUL PUSH2 0xD04 PUSH32 0xFFFFFFFFFFFFFFFFFFFFFFFFFFFFFFFFFFFFFFFFFFFFFFFFFFFFFFFFFFFFFFFF DUP3 PUSH2 0xCC7 JUMP JUMPDEST PUSH2 0xD0E DUP7 DUP4 PUSH2 0xCC7 JUMP JUMPDEST SWAP6 POP DUP1 NOT DUP5 AND SWAP4 POP DUP1 DUP7 AND DUP5 OR SWAP3 POP POP POP SWAP4 SWAP3 POP POP POP JUMP JUMPDEST PUSH1 0x0 DUP2 SWAP1 POP SWAP2 SWAP1 POP JUMP JUMPDEST PUSH1 0x0 PUSH2 0xD4B PUSH2 0xD46 PUSH2 0xD41 DUP5 PUSH2 0xA47 JUMP JUMPDEST PUSH2 0xD26 JUMP JUMPDEST PUSH2 0xA47 JUMP JUMPDEST SWAP1 POP SWAP2 SWAP1 POP JUMP JUMPDEST PUSH1 0x0 DUP2 SWAP1 POP SWAP2 SWAP1 POP JUMP JUMPDEST PUSH2 0xD65 DUP4 PUSH2 0xD30 JUMP JUMPDEST PUSH2 0xD79 PUSH2 0xD71 DUP3 PUSH2 0xD52 JUMP JUMPDEST DUP5 DUP5 SLOAD PUSH2 0xCD4 JUMP JUMPDEST DUP3 SSTORE POP POP POP POP JUMP JUMPDEST PUSH1 0x0 SWAP1 JUMP JUMPDEST PUSH2 0xD8E PUSH2 0xD81 JUMP JUMPDEST PUSH2 0xD99 DUP2 DUP5 DUP5 PUSH2 0xD5C JUMP JUMPDEST POP POP POP JUMP JUMPDEST JUMPDEST DUP2 DUP2 LT ISZERO PUSH2 0xDBD JUMPI PUSH2 0xDB2 PUSH1 0x0 DUP3 PUSH2 0xD86 JUMP JUMPDEST PUSH1 0x1 DUP2 ADD SWAP1 POP PUSH2 0xD9F JUMP JUMPDEST POP POP JUMP JUMPDEST PUSH1 0x1F DUP3 GT ISZERO PUSH2 0xE02 JUMPI PUSH2 0xDD3 DUP2 PUSH2 0xCA2 JUMP JUMPDEST PUSH2 0xDDC DUP5 PUSH2 0xCB7 JUMP JUMPDEST DUP2 ADD PUSH1 0x20 DUP6 LT ISZERO PUSH2 0xDEB JUMPI DUP2 SWAP1 POP JUMPDEST PUSH2 0xDFF PUSH2 0xDF7 DUP6 PUSH2 0xCB7 JUMP JUMPDEST DUP4 ADD DUP3 PUSH2 0xD9E JUMP JUMPDEST POP POP JUMPDEST POP POP POP JUMP JUMPDEST PUSH1 0x0 DUP3 DUP3 SHR SWAP1 POP SWAP3 SWAP2 POP POP JUMP JUMPDEST PUSH1 0x0 PUSH2 0xE25 PUSH1 0x0 NOT DUP5 PUSH1 0x8 MUL PUSH2 0xE07 JUMP JUMPDEST NOT DUP1 DUP4 AND SWAP2 POP POP SWAP3 SWAP2 POP POP JUMP JUMPDEST PUSH1 0x0 PUSH2 0xE3E DUP4 DUP4 PUSH2 0xE14 JUMP JUMPDEST SWAP2 POP DUP3 PUSH1 0x2 MUL DUP3 OR SWAP1 POP SWAP3 SWAP2 POP POP JUMP JUMPDEST PUSH2 0xE57 DUP3 PUSH2 0x7B6 JUMP JUMPDEST PUSH8 0xFFFFFFFFFFFFFFFF DUP2 GT ISZERO PUSH2 0xE70 JUMPI PUSH2 0xE6F PUSH2 0x91C JUMP JUMPDEST JUMPDEST PUSH2 0xE7A DUP3 SLOAD PUSH2 0xBFA JUMP JUMPDEST PUSH2 0xE85 DUP3 DUP3 DUP6 PUSH2 0xDC1 JUMP JUMPDEST PUSH1 0x0 PUSH1 0x20 SWAP1 POP PUSH1 0x1F DUP4 GT PUSH1 0x1 DUP2 EQ PUSH2 0xEB8 JUMPI PUSH1 0x0 DUP5 ISZERO PUSH2 0xEA6 JUMPI DUP3 DUP8 ADD MLOAD SWAP1 POP JUMPDEST PUSH2 0xEB0 DUP6 DUP3 PUSH2 0xE32 JUMP JUMPDEST DUP7 SSTORE POP PUSH2 0xF18 JUMP JUMPDEST PUSH1 0x1F NOT DUP5 AND PUSH2 0xEC6 DUP7 PUSH2 0xCA2 JUMP JUMPDEST PUSH1 0x0 JUMPDEST DUP3 DUP2 LT ISZERO PUSH2 0xEEE JUMPI DUP5 DUP10 ADD MLOAD DUP3 SSTORE PUSH1 0x1 DUP3 ADD SWAP2 POP PUSH1 0x20 DUP6 ADD SWAP5 POP PUSH1 0x20 DUP2 ADD SWAP1 POP PUSH2 0xEC9 JUMP JUMPDEST DUP7 DUP4 LT ISZERO PUSH2 0xF0B JUMPI DUP5 DUP10 ADD MLOAD PUSH2 0xF07 PUSH1 0x1F DUP10 AND DUP3 PUSH2 0xE14 JUMP JUMPDEST DUP4 SSTORE POP JUMPDEST PUSH1 0x1 PUSH1 0x2 DUP9 MUL ADD DUP9 SSTORE POP POP POP JUMPDEST POP POP POP POP POP POP JUMP JUMPDEST PUSH1 0x0 DUP2 SWAP1 POP SWAP3 SWAP2 POP POP JUMP JUMPDEST PUSH32 0x41646465642073747564656E7420000000000000000000000000000000000000 PUSH1 0x0 DUP3 ADD MSTORE POP JUMP JUMPDEST PUSH1 0x0 PUSH2 0xF61 PUSH1 0xE DUP4 PUSH2 0xF20 JUMP JUMPDEST SWAP2 POP PUSH2 0xF6C DUP3 PUSH2 0xF2B JUMP JUMPDEST PUSH1 0xE DUP3 ADD SWAP1 POP SWAP2 SWAP1 POP JUMP JUMPDEST PUSH1 0x0 PUSH2 0xF82 DUP3 PUSH2 0x7B6 JUMP JUMPDEST PUSH2 0xF8C DUP2 DUP6 PUSH2 0xF20 JUMP JUMPDEST SWAP4 POP PUSH2 0xF9C DUP2 DUP6 PUSH1 0x20 DUP7 ADD PUSH2 0x7D2 JUMP JUMPDEST DUP1 DUP5 ADD SWAP2 POP POP SWAP3 SWAP2 POP POP JUMP JUMPDEST PUSH1 0x0 PUSH2 0xFB3 DUP3 PUSH2 0xF54 JUMP JUMPDEST SWAP2 POP PUSH2 0xFBF DUP3 DUP5 PUSH2 0xF77 JUMP JUMPDEST SWAP2 POP DUP2 SWAP1 POP SWAP3 SWAP2 POP POP JUMP JUMPDEST PUSH32 0x53747564656E7420646F6573206E6F7420657869737400000000000000000000 PUSH1 0x0 DUP3 ADD MSTORE POP JUMP JUMPDEST PUSH1 0x0 PUSH2 0x1000 PUSH1 0x16 DUP4 PUSH2 0xB06 JUMP JUMPDEST SWAP2 POP PUSH2 0x100B DUP3 PUSH2 0xFCA JUMP JUMPDEST PUSH1 0x20 DUP3 ADD SWAP1 POP SWAP2 SWAP1 POP JUMP JUMPDEST PUSH1 0x0 PUSH1 0x20 DUP3 ADD SWAP1 POP DUP2 DUP2 SUB PUSH1 0x0 DUP4 ADD MSTORE PUSH2 0x102F DUP2 PUSH2 0xFF3 JUMP JUMPDEST SWAP1 POP SWAP2 SWAP1 POP JUMP JUMPDEST PUSH32 0x52656D6F7665642073747564656E742000000000000000000000000000000000 PUSH1 0x0 DUP3 ADD MSTORE POP JUMP JUMPDEST PUSH1 0x0 PUSH2 0x106C PUSH1 0x10 DUP4 PUSH2 0xF20 JUMP JUMPDEST SWAP2 POP PUSH2 0x1077 DUP3 PUSH2 0x1036 JUMP JUMPDEST PUSH1 0x10 DUP3 ADD SWAP1 POP SWAP2 SWAP1 POP JUMP JUMPDEST PUSH1 0x0 DUP2 SLOAD PUSH2 0x108F DUP2 PUSH2 0xBFA JUMP JUMPDEST PUSH2 0x1099 DUP2 DUP7 PUSH2 0xF20 JUMP JUMPDEST SWAP5 POP PUSH1 0x1 DUP3 AND PUSH1 0x0 DUP2 EQ PUSH2 0x10B4 JUMPI PUSH1 0x1 DUP2 EQ PUSH2 0x10C9 JUMPI PUSH2 0x10FC JUMP JUMPDEST PUSH1 0xFF NOT DUP4 AND DUP7 MSTORE DUP2 ISZERO ISZERO DUP3 MUL DUP7 ADD SWAP4 POP PUSH2 0x10FC JUMP JUMPDEST PUSH2 0x10D2 DUP6 PUSH2 0xCA2 JUMP JUMPDEST PUSH1 0x0 JUMPDEST DUP4 DUP2 LT ISZERO PUSH2 0x10F4 JUMPI DUP2 SLOAD DUP2 DUP10 ADD MSTORE PUSH1 0x1 DUP3 ADD SWAP2 POP PUSH1 0x20 DUP2 ADD SWAP1 POP PUSH2 0x10D5 JUMP JUMPDEST DUP4 DUP9 ADD SWAP6 POP POP POP JUMPDEST POP POP POP SWAP3 SWAP2 POP POP JUMP JUMPDEST PUSH1 0x0 PUSH2 0x1110 DUP3 PUSH2 0x105F JUMP JUMPDEST SWAP2 POP PUSH2 0x111C DUP3 DUP5 PUSH2 0x1082 JUMP JUMPDEST SWAP2 POP DUP2 SWAP1 POP SWAP3 SWAP2 POP POP JUMP JUMPDEST PUSH1 0x0 PUSH2 0x1132 DUP3 PUSH2 0xA47 JUMP JUMPDEST SWAP2 POP PUSH2 0x113D DUP4 PUSH2 0xA47 JUMP JUMPDEST SWAP3 POP DUP3 DUP3 SUB SWAP1 POP DUP2 DUP2 GT ISZERO PUSH2 0x1155 JUMPI PUSH2 0x1154 PUSH2 0xC2B JUMP JUMPDEST JUMPDEST SWAP3 SWAP2 POP POP JUMP JUMPDEST PUSH1 0x0 PUSH2 0x1166 DUP3 PUSH2 0xA47 JUMP JUMPDEST SWAP2 POP PUSH2 0x1171 DUP4 PUSH2 0xA47 JUMP JUMPDEST SWAP3 POP DUP3 DUP3 ADD SWAP1 POP DUP1 DUP3 GT ISZERO PUSH2 0x1189 JUMPI PUSH2 0x1188 PUSH2 0xC2B JUMP JUMPDEST JUMPDEST SWAP3 SWAP2 POP POP JUMP JUMPDEST PUSH32 0x4E487B7100000000000000000000000000000000000000000000000000000000 PUSH1 0x0 MSTORE PUSH1 0x31 PUSH1 0x4 MSTORE PUSH1 0x24 PUSH1 0x0 REVERT INVALID LOG2 PUSH5 0x6970667358 0x22 SLT KECCAK256 LOG2 PUSH24 0x6018E7A998CA9F27992FF54F2F1FF509425ED19B0336F7BF 0xEA 0xB3 0x2E 0xE8 0xD1 PUSH6 0x64736F6C6343 STOP ADDMOD GT STOP CALLER "},"methodIdentifiers":{"addItem(string,uint256)":"62d6bbdf","balance()":"b69ef8a8","getItemNames()":"13bc8510","getString()":"89ea642f","itemIds(uint256)":"b3dc00fe","items(uint256)":"bfb231d2","removeItem(uint256)":"71329171"}}}}}